:020000040800F2
:10000000F804002001010008BB180008BD18000812
:10001000C1180008C5180008C91800080000000031
:10002000000000000000000000000000CD180008E3
:10003000CF18000800000000D1180008D3180008ED
:100040001B0100081B0100081B0100081B01000820
:100050001B0100081B0100081B0100081B01000810
:100060001B0100081B0100081B0100081B01000800
:100070001B0100081B0100081B0100081B010008F0
:100080001B0100081B0100081B0100081B010008E0
:100090001B0100081B0100081B0100081B010008D0
:1000A0001B0100081B0100081B0100081B010008C0
:1000B0001B0100081B0100081B0100081B010008B0
:1000C0001B0100081B0100081B0100081B010008A0
:1000D0001B010008D51800081B0100081B010008BF
:1000E0001B0100081B0100081B010008DFF80CD0F1
:1000F00001F040FC00480047A3180008F804002065
:100100000648804706480047FEE7FEE7FEE7FEE7B1
:10011000FEE7FEE7FEE7FEE7FEE7FEE70302000874
:10012000ED0000080CB50020019000906C480068BC
:1001300040F480306A49086000BF6948006800F4F4
:10014000003000900198401C0190009818B9019867
:10015000B0F5A06FF1D16248006800F4003010B132
:100160000120009001E0002000900098012843D178
:100170005C48006840F010005A4908600846006872
:1001800020F0030008600846006840F002000860A4
:1001900053484068524948600846406848600846ED
:1001A000406840F4806048600846406820F47C1055
:1001B00048600846406840F4E81048600846006817
:1001C00040F08070086000BF4548006800F0007093
:1001D0000028F9D04248406820F0030040494860B8
:1001E0000846406840F00200486000BF3C48406854
:1001F00000F00C000828F9D10CBD10B5FFF792FFF4
:1002000010BD10B53648006840F001003449086060
:10021000084640683449084031494860084600684B
:10022000324908402E4908600846006820F48020C2
:1002300008600846406820F4FE0048604FF41F0044
:100240008860FFF7DAFF4FF000602949086010BDB1
:1002500010B5002100200022214B5B6803F00C0147
:1002600021B1042906D0082928D107E0214B224CCE
:10027000236027E01F4B204C236023E0184B5B6872
:1002800003F47010164B5B6803F48032022303EB17
:10029000904022B9194B4343174C23600DE0104B9B
:1002A0005B6803F4003323B1144B4343124C2360C7
:1002B00003E0104B4343104C236003E00D4B0E4C06
:1002C000236000BF00BF064B5B68C3F303130C4CF5
:1002D000E15C094B1B68CB40074C236010BD00005C
:1002E00000100240002002400000FFF8FFFFF6FE71
:1002F00008ED00E000127A000000002000093D0037
:100300000400002031490143314A1160704770B543
:10031000002100230F22C47804B32D4C246804F478
:10032000E064C4F5E064210AC1F10403CA404478E2
:1003300004FA03F18478144021430901254C06781E
:10034000A155047804F01F050124AC4005786D1117
:10035000AD0005F1E025C5F8004109E0047804F09E
:100360001F050124AC401C4D0678761145F8264047
:1003700070BD1A4A0A400243154B1B1F1A60704792
:1003800039B1134A121D12680243114B1B1D1A602A
:1003900006E00F4A121D126882430D4B1B1D1A60A6
:1003A0007047042808D14FF0E021096941F00401A9
:1003B0004FF0E022116107E04FF0E021096921F0E0
:1003C00004014FF0E0221161704700000000FA05BF
:1003D0000CED00E000E400E080E100E080FFFF1FA2
:1003E00010B50446CC48844208D10121042000F015
:1003F0002DFB0021042000F029FB46E0C748844281
:1004000008D10121082000F021FB0021082000F084
:100410001DFB3AE0C248844208D10121102000F0BF
:1004200015FB0021102000F011FB2EE0BD48844296
:1004300008D10121202000F009FB0021202000F03C
:1004400005FB22E0B848844208D10121402000F099
:10045000FDFA0021402000F0F9FA16E0B34884428A
:1004600008D10121802000F0F1FA0021802000F065
:10047000EDFA0AE0AE48844207D10121801500F070
:10048000E5FA0021A01500F0E1FA10BD10B5012138
:10049000084600F0DBFA0021012000F0D7FA10BD79
:1004A0002DE9F0410246002500260020002300240B
:1004B000002791F803C00CF00F0591F803C00CF071
:1004C000100CBCF1000F03D091F802C04CEA0505F6
:1004D00091F800C0BCF1000F31D0146800202BE06F
:1004E0004FF0010C0CFA00F3B1F800C00CEA03065F
:1004F0009E4220D183004FF00F0C0CFA03F7BC434F
:1005000005FA03FC4CEA040491F803C0BCF1280F7F
:1005100006D14FF0010C0CFA00FCC2F814C00AE03E
:1005200091F803C0BCF1480F05D14FF0010C0CFA53
:1005300000FCC2F810C0401C0828D1D31460B1F8E8
:1005400000C0BCF1FF0F34DD546800202EE000F144
:10055000080C4FF0010808FA0CF3B1F800C00CEADF
:1005600003069E4221D183004FF00F0C0CFA03F7D3
:10057000BC4305FA03FC4CEA040491F803C0BCF147
:10058000280F05D100F1080C08FA0CF8C2F8148005
:1005900091F803C0BCF1480F07D100F1080C4FF0EF
:1005A000010808FA0CF8C2F81080401C0828CED3C5
:1005B0005460BDE8F0814FF6FF7101800221817027
:1005C0000421C17070470246002093680B400BB1B4
:1005D000012000E0002070470146886880B2704723
:1005E00002460020D3680B400BB1012000E0002040
:1005F00070470146C86880B2704701617047416129
:1006000070470AB1016100E041617047C160704705
:100610004FF480320A43826181618261826982691A
:10062000704702460020434B18684FF6807318400D
:1006300040EA021008433F4B186070473E49C861CA
:100640007047F0B50A46002300240021002500F081
:100650000046B6F1004F02D1364EF16901E0354E49
:100660007168C0F3034583B200F44016B6F5401F2D
:1006700008D121F070612F4E766826F070662D4FFC
:100680007E6012E000F48016B6F5801F06D10326C6
:1006900006FA05F4A14341F0706106E0460D36010B
:1006A00003FA06F6B14341F0706122B1460D3601FE
:1006B00003FA06F6314300F00046B6F1004F02D1CE
:1006C0001C4EF16101E01B4E7160F0BD30B500229F
:1006D0008B071C0F0F2303FA04F2164B08338C1000
:1006E00053F824309343134C08348D1044F82530CC
:1006F00023468C1053F824308C07240F00FA04F49E
:1007000023430C4C08348D1044F8253030BD0A4981
:10071000DC3108607047000000080140000C014017
:10072000001001400014014000180140001C01406D
:10073000002001400000014000002042DF48006826
:1007400040F00100DD49086008464068DC49084087
:10075000DA49486008460068DA490840D749086025
:100760000846006820F4802008600846406820F4AD
:10077000FE0048604FF41F0088607047CF49096849
:1007800021F48031CD4A11601146096821F480219D
:100790001160B0F5803F03D0B0F5802F0ED106E098
:1007A000C649096841F48031C44A116007E0C34971
:1007B000096841F4A021C14A116000E000BF00BFF8
:1007C000704710B501460022002300204A11012A7B
:1007D00002D1BA4C236806E0022A02D1B74C236A40
:1007E00001E0B64C636A01F01F02012494401C40F2
:1007F0000CB1012000E0002010BD38B500200090B1
:100800000024002500BF3120FFF7DBFF05460098DC
:10081000401C00900098B0F5A06F01D0002DF2D0E0
:100820003120FFF7CEFF08B1012400E0002420466C
:1008300038BD01460020A14A106820F0F80040EAC7
:10084000C10010607047A049086070470246002050
:100850009A4B586820F47C1042EA01031843974BE6
:100860005860704798490866704701460020934ACF
:10087000506820F003000843506070478F4840687C
:1008800000F00C007047014600208C4A506820F0B0
:10089000F00008435060704701460020874A5068C6
:1008A00020F4E06008435060704701460020834A0E
:1008B000506820F4605040EAC1005060704729B190
:1008C0007E4A527A02437D4B5A7204E07B4A527A46
:1008D00082437A4B5A7270477B49D831086070471F
:1008E00001460020754A506820F44040084350609B
:1008F00070470021714A20321170704A82F820102E
:10090000012802D004280AD104E001216B4A2032D8
:10091000117005E00521694A2032117000E000BF26
:1009200000BF70476949086070476449096A01431C
:10093000624A11627047654944390860704730B5B2
:1009400000210022002400235C4D6D6805F00C019D
:1009500021B1042905D0082923D105E05C4D0560AB
:1009600022E05B4D05601FE0544D6D6805F4701288
:10097000524D6D6805F48034022505EB92421CB996
:10098000544D554305600BE04C4D6D6805F4003542
:100990001DB1504D5543056002E04D4D5543056076
:1009A00002E04B4D056000BF00BF444D6D6805F08F
:1009B000F0010909484D6B5C0568DD4045603F4D1D
:1009C0006D6805F4E061090A434D6B5C4568DD40E4
:1009D00085603A4D6D6805F46051C90A3E4D6B5C07
:1009E0004568DD40C560354D6D6805F44041890BB3
:1009F0003A4D6B5CC568B5FBF3F5056130BD29B1B7
:100A00002E4A526902432D4B5A6104E02B4A526927
:100A100082432A4B5A61704729B1284A926902439E
:100A2000264B9A6104E0254A92698243234B9A61DE
:100A3000704729B1214AD2690243204BDA6104E0B0
:100A40001E4AD26982431D4BDA61704729B11B4AA5
:100A5000D2680243194BDA6004E0184AD268824334
:100A6000164BDA60704729B1144A12690243134BDE
:100A70001A6104E0114A12698243104B1A617047EF
:100A800012494039086070470F49C86470470B49E4
:100A9000C87170470948406A40F080700749486251
:100AA000704701460020054A92680A400AB10120B9
:100AB00000E0002070470149887270470010024032
:100AC0000000FFF8FFFFF6FE0000424280044242B1
:100AD00000127A0000093D001400002024000020CC
:100AE00010B50446FB48844209D101218803FFF771
:100AF000ADFF00214FF48040FFF7A8FF32E0F64839
:100B0000844209D101214804FFF7ADFF00214FF4D1
:100B10000030FFF7A8FF25E0F048844209D1012109
:100B20008804FFF7A0FF00214FF48020FFF79BFF10
:100B300018E0EB48844209D10121C804FFF793FF74
:100B400000214FF40020FFF78EFF0BE0E5488442C0
:100B500008D101210805FFF786FF00214FF480101E
:100B6000FFF781FF10BD2DE9F04786B005460E4620
:100B70000024A24600BFA1460027B08900B100BFF3
:100B80002F462C8A4CF6FF700440F08804432C82D8
:100B9000AC894EF6F3100440B0883189084371895E
:100BA00008430443AC81AC8A4FF6FF400440B0894F
:100BB0000443AC8201A8FFF7C2FEC648874202D1B7
:100BC000DDF810A001E0DDF80CA0A88900F40040D9
:100BD00040B10AEBCA0000EB0A1031684900B0FBD3
:100BE000F1F807E00AEBCA0000EB0A10316889004F
:100BF000B0FBF1F86420B8FBF0F004012009642197
:100C000001FB1089A88900F4004040B1322000EBBC
:100C1000C900B0FBF1F000F00700044308E0322007
:100C200000EB09106421B0FBF1F000F00F00044369
:100C30002C8106B0BDE8F0874FF416510160002109
:100C40008180C18001810C21418100218181704717
:100C500010B502460020108A4FF2FF0318400B889F
:100C60004C8823438C882343CC8823431843108229
:100C700010BD0021018041808180C180704721B179
:100C8000828942F40052828104E082894DF6FF732A
:100C90001A4082817047F0B50346002400260025E3
:100CA000002040F66A17B94200D100BF1846C1F3D0
:100CB000421401F01F06012707FA06F5012C01D1A5
:100CC0000C3004E0022C01D1103000E014301AB1D5
:100CD00007682F43076002E00768AF430760F0BD75
:100CE0001AB1838A0B43838202E0838A8B43838217
:100CF0007047028A4FF6F0731A400282028A0A4352
:100D00000282704782894FF2FF731A408281828982
:100D10000A438281704721B1828942F002028281B6
:100D200004E082894FF6FD731A4082817047028A7F
:100D30004FF6DF731A400282028A0A43028270472A
:100D400021B1028A42F48042028204E0028A4BF618
:100D5000FF731A4002827047C1F308028280704715
:100D600001468888C0F308007047818941F001017D
:100D700081817047028BD2B20283028B42EA012248
:100D800002837047028B02F47F420283028B0A4384
:100D90000283704721B1828A42F02002828204E0FD
:100DA000828A4FF6DF731A408282704721B1828AAD
:100DB00042F01002828204E0828A4FF6EF731A40FA
:100DC0008282704721B1828A42F00802828204E066
:100DD000828A4FF6F7731A408282704721B1828966
:100DE00042F40042828103E08289C2F30E028281D2
:100DF000704721B1828A42F40062828204E0828AD2
:100E00004FF2FF731A4082827047828A4FF6FB735B
:100E10001A408282828A0A438282704721B1828A82
:100E200042F00202828204E0828A4FF6FD731A4089
:100E30008282704702460020B1F5007F00D100BFDA
:100E400013880B400BB1012000E00020704701F433
:100E50000072B2F5007F00D100BFCA430280704724
:100E600070B50246002400230025002040F66A16D3
:100E7000B14200D100BFC1F3421501F01F030126AA
:100E800006FA03F3012D02D19689334006E0022DC4
:100E900002D1168A334001E0968A33400C120126B3
:100EA00006FA04F41688344013B10CB1012000E0B6
:100EB000002070BD10B50022002340F66A14A14244
:100EC00000D100BF0A1201249440A3B2DC43048085
:100ED00010BD0000003801400044004000480040C0
:100EE000004C00400050004008B501211020FFF7E1
:100EF00093FD4FF40050ADF8000010208DF8030072
:100F000003208DF8020069460348FFF7C9FA4FF441
:100F100000500149086108BD0010014070471CB530
:100F200040F225517148FFF79BFF88B16F48FFF7EA
:100F300017FFC0B2019001A841236D4A911E009095
:100F4000881E00F0F4FB9DF804106848FFF704FFCA
:100F50001CBD08B54FF4A060FFF7D4F925208DF82B
:100F6000000001208DF801008DF802008DF80300CB
:100F70006846FFF7CCF908BD10B586B004460121DC
:100F80000420FFF749FD01218803FFF745FD4FF4D9
:100F90000070ADF8140018208DF8170003208DF8AC
:100FA000160005A95348FFF77BFA4FF48060ADF8AF
:100FB000140004208DF8170005A94E48FFF770FAB9
:100FC00001940020ADF80800ADF80A00ADF80C005F
:100FD000ADF810000C20ADF80E0001A94348FFF752
:100FE000C2FDFFF7B6FF012240F225513F48FFF74F
:100FF00052FE01213D48FFF742FE06B010BD70B51C
:1010000004460D4629462046FFF7A6FE00BF802174
:101010002046FFF70FFF0028F9D070BD2DE9F04101
:1010200007460D461646002405E0295D3846FFF7C1
:10103000E6FF601CC4B2B442F7DB00BF4021384673
:10104000FFF7F8FE0028F9D0BDE8F08170B506463C
:101050000C46002500BF615D3046FFF7D0FF6D1CD8
:10106000605D0028F7D100BF40213046FFF7E2FE67
:101070000028F9D070BD2DE9F04105460C46260A3E
:10108000E7B231462846FFF767FE00BF80212846B9
:10109000FFF7D0FE0028F9D039462846FFF75CFE5E
:1010A00000BF80212846FFF7C5FE0028F9D0BDE823
:1010B000F08170B504460D46E1B20C48FFF74CFED6
:1010C00000BF80210948FFF7B5FE0028F9D020466F
:1010D00070BD10B5044600BF20210448FFF7AAFEEA
:1010E0000028F9D00148FFF73BFE10BD0038014051
:1010F000340000200008014070B505460E4600246B
:1011000007E0EB4901EB0411486800F065FC601C46
:10111000C4B2052CF5D3012070BD70B504460D4650
:10112000E4A000F059FCE5A000F056FCE5A000F0BA
:1011300053FCE5A000F050FC012070BD70B50546E1
:101140000E462C46002E17DDB4B1641C20783128E1
:1011500006D10120DE490870DEA000F03DFC0BE066
:101160002078302806D10020D9490870DCA000F092
:1011700033FC01E0002070BD0120FCE7FEB5054610
:101180000E46DA4804882146D9A000F025FCD7484D
:10119000123800680090D5480E3800680190D34896
:1011A0000A3800680290D7A09DE80E0000F014FCF9
:1011B0000120FEBDDAA000F00FFCE0A000F00CFC66
:1011C000DF4800F065FBDDA000F006FCDC4800F025
:1011D0005FFBDAA000F000FC00BFDA48006800F412
:1011E000E060D9490843001DD6490860BFF3408F2D
:1011F00000BF00BFFEE770B502460B4615461C4611
:1012000000210EE0605C28B1685C665CB04206D0EC
:10121000002070BD09B10120FBE70020F9E7481C60
:10122000C1B2FF29EEDB0020F3E738B502460B46DA
:10123000144619460020009013E09DF80000085C59
:1012400048B19DF80000205C9DF800504D5DA8421B
:1012500002D0002038BD08E09DF80000401CC0B25C
:1012600000909DF80000FF28E7DB00BF9DF800001C
:10127000205C9DF800504D5DA84201D00020E9E7B8
:101280009DF8000008B90020E4E70120E2E770B50E
:1012900005464621AD4800F02AFB2846FFF76CFEC4
:1012A000002410E0824800EB0410806848B18049B7
:1012B00001EB04118868804718B92146A4A000F00A
:1012C0008BFB601CC4B2052CECD3A8A000F084FBFF
:1012D00078A000F081FB79A000F07EFB7AA000F0FE
:1012E0007BFB78A000F078FBA1A000F075FBADA01F
:1012F00000F072FBADA000F06FFBB9A000F06CFB3A
:10130000C4A000F069FBD0A000F066FBDBA000F0F9
:1013100063FB97A000F060FB70BD2DE9F843054624
:101320004FF0000837E0D74890F88000802831DA85
:10133000D44890F88000D349084441232A1DA91CB1
:101340000090284600F012FA012822D1CD4890F8EA
:101350008000CC49085C082813D1084690F880002A
:1013600000280EDD084690F88000002813DD0846AE
:1013700090F88000401E81F88000C3A000F02CFB94
:1013800009E0C04890F88000401CBE4981F8800008
:1013900001E001E000E0C6E700BFBA4890F8800035
:1013A00001280BD1B74890F88000401EB549085C71
:1013B0000D2803D1002081F8800065E0B14890F845
:1013C0008000012860DDAF4890F88000401EAD49E4
:1013D000085C0D2858D100244AE0354800EB041081
:1013E0000168A848FFF707FF01283FD18046304930
:1013F00001EB0411086800F085FAA24991F8801009
:10140000081AC6B22A4901EB0411086800F07AFAFA
:101410009C494718264800EB0410C06818B32448BC
:1014200000EB04103146C2683846904788B197A057
:1014300000F0D2FA26480078012817D100209149FF
:1014400091F880108F4A5054114693A000F0C4FACE
:101450000CE095A000F0C0FA154901EB04114868B2
:1014600000F0BAFA02E094A000F0B6FA601CC4B230
:10147000052CB2D3B8F1000F02D193A000F0ACFA62
:101480000020804981F880007E4890F88000802804
:1014900003DB00207B4981F88000BDE8F8837047BA
:1014A00010B52A48FFF739FFFFF7F9FF10BD00001C
:1014B0001C1F00081B5B313B34306D001B5B313B54
:1014C00033326D001B5B48001B5B324A000000009A
:1014D000280000206563686F206F6E0D0A00000011
:1014E0006563686F206F66660D0A0000227AFF1F31
:1014F000466C6173682073697A653A202564204BD5
:10150000420D0A0055494428686578293A2025305B
:1015100032582D253032582D253032580D0A000012
:101520000D0A5B454E445D3A2053797374656D2016
:101530005265626F6F74696E670000002E000000D4
:10154000FFFF8F000CED00E00000FA0530000020E6
:101550000D0A2D3E2046554E5B25645D20494E49BF
:10156000542057524F4E470D0A000000200D0A002C
:101570002D2D2D2D2D2D2D2D2D2D2D2D2D2D2D2D9B
:101580002D2D2D2D2D2D2D2D2D2D2D2D2D2D2D2D8B
:101590002D2D2D2D2D2D2D2D2D2D2D2D2D0D0A0DDE
:1015A0000A0000001B5B376D000000002020202097
:1015B000434C492076657273696F6E3A2056302E1F
:1015C00033312020202020202020202020202020F7
:1015D0002020202020202020200D0A0D0A000000BD
:1015E00020202020636F6465723A20202020202074
:1015F0002043617420202020202020202020202033
:10160000202020202020202020202020200D0A0D16
:101610000A000000202020206769746875623A2063
:10162000202020202068747470733A2F2F6769740B
:101630006875622E636F6D2F5368617265436174C4
:10164000200D0A0D0A00000020202020456D616950
:101650006C3A202020202020203834333535333494
:1016600039334071712E636F6D202020202020209F
:1016700020202020200D0A0D0A0000001B5B3237BD
:101680006D000000760000201B5B4B000D0A2D3E14
:10169000204F4B0D0A0000005B6563686F5D3A20C8
:1016A00025730D0A000000000D0A2D3E2045525200
:1016B0004F520D0A000000000D0A2D3E2046554EE7
:1016C00020564F49440D0A000D0A2D3E2057524F17
:1016D0004E4720434D440D0A0D0A000030B5044624
:1016E0000D46002103E000205054481C81B299426D
:1016F000F9DB002028802080012030BD30B5044671
:101700000888401C90FBF3F503FB15002588A842D0
:1017100001D1012030BD0020FCE730B5044620880F
:101720000D88A84201D1012030BD0020FCE72DE941
:10173000F04107460C4615461E46DDF81880334634
:101740002A4621463846FFF7D9FF10B10020BDE8F0
:10175000F08198F80000218868542088401C90FB94
:10176000F6F106FB110020800120F0E72DE9F041A1
:1017700004460F4615461E46DDF8188033462A46B5
:1017800039462046FFF7C9FF10B10020BDE8F081BF
:101790002088285C88F800002088401C90FBF6F127
:1017A00006FB110020800120F0E7000010B5FFF7D4
:1017B0009BFB10BD10B5FFF7F9FF012010BD70B500
:1017C00005460E462C46002E36DD002C34D0641C17
:1017D0002078312815D14FF400501849486100BFD6
:1017E00017A000F0F9F800BF00BF16A000F0F4F851
:1017F0003322164916A000F0EFF81CA000F0ECF818
:101800001AE02078302815D14FF400500B490861B8
:1018100000BF0BA000F0E0F800BF00BF09A000F07F
:10182000DBF83822094913A000F0D6F80FA000F029
:10183000D3F801E0002070BD0120FCE7001001405A
:101840000D0A00001B5B313B33336D006C1F000839
:101850005B44656275675D202573282564293A20FD
:101860006C6564206F6E0D0A0D0A00001B5B313B36
:1018700033326D005B44656275675D2025732825F2
:1018800064293A206C6564206F66660D0A0D0A00B3
:1018900001B502E00098401E009000980028F9D1A0
:1018A00008BD4FF4E130FFF7F2FC05E0FFF7F8FD6B
:1018B0004FF6FF70FFF7ECFFF8E7704700BFFEE759
:1018C00000BFFEE700BFFEE700BFFEE770477047BE
:1018D0007047704710B5FFF721FBFFF720FB10BDE5
:1018E000D2B201E000F8012B491EFBD27047002262
:1018F000F6E710B513460A4604461946FFF7F0FF0F
:10190000204610BD421C10F8011B0029FBD1801A93
:1019100070472DE9F05F0546002092469B468846B9
:101920000646814640241BE028464146474622465B
:1019300000F041F853465A46C01A914110D311465F
:101940001846224600F028F82D1A67EB01084F468A
:1019500022460120002100F01FF817EB00094E413C
:10196000201EA4F10104DFDC484631462A464346E6
:10197000BDE8F09F064C074D06E0E06840F001032B
:1019800094E8070098471034AC42F6D3FEF7B2FB58
:10199000D41F0008F41F0008202A04DB203A00FAB4
:1019A00002F1002070479140C2F1200320FA03F3B6
:1019B000194390407047202A04DB203A21FA02F0B4
:1019C0000021704721FA02F3D040C2F12002914079
:1019D00008431946704700000FB4054B10B503A922
:1019E000044A029800F018F810BC5DF814FB0000DF
:1019F000B31000082C00002002E008C8121F08C124
:101A0000002AFAD170477047002001E001C1121F7F
:101A1000002AFBD1704700002DE9FF4F8DB00F4623
:101A20000546002606E025280BD0DDE90F12904779
:101A30006D1C761C28780028F5D111B03046BDE821
:101A4000F08F0024A246A1460122EC4900E00443A5
:101A500015F8013F203B02FA03F00842F7D128783D
:101A60002A2810D06FF02F022878A0F13001092920
:101A700014D80AEB8A0102EB410144F0020400EBA6
:101A8000010A6D1CF0E701CF5FEA000A03D544F4B8
:101A90000054CAF1000A44F002046D1C28782E2874
:101AA00017D115F8010F44F004042A280ED06FF066
:101AB0002F022878A0F1300109290AD809EB890101
:101AC00002EB410100EB01096D1CF2E757F8049BA2
:101AD0006D1C28786C280FD006DC4C2817D068289D
:101AE0000DD06A2814D104E0742810D07A280FD1C0
:101AF0000DE044F400140AE044F4801401E044F4DE
:101B000040146978814202D104F580146D1C6D1C6B
:101B10002A786E2A1FD00CDC632A31D004DC002A1C
:101B20008BD0582A11D1A3E0642A68D0692A0CD13D
:101B300065E0732A2ED004DC6F2A73D0702A04D19A
:101B40009BE0752A6FD0782A6ED01046DDE90F121F
:101B50009047761C50E1C4F30250022806D00328B7
:101B600009D0042801CF09D0066045E101CFF11763
:101B7000C0E9006140E101CF06803DE106703BE134
:101B800017F8040B8DF8000000208DF80100EB46DB
:101B9000012003E057F804BB4FF0FF3061074FF01E
:101BA000000102D40DE008F10101884649450FDA31
:101BB0008045F8DB1BF808100029F4D108E008F193
:101BC000010188468142FADB1BF808100029F6D192
:101BD000DDE90F23AAEB08008146214600F036F923
:101BE000304400EB080604E0DDE90F121BF8010B9E
:101BF0009047B8F10108F7D221464846F7E00A219C
:101C0000C4F302534FF0000B0891022B04D001CF14
:101C1000C117032B09D00AE0FF1D27F00707F7E8DB
:101C2000020108E032E01FE020E000B2C117042BFF
:101C300001D140B2C117031E71F1000307DA4FF062
:101C4000000CD0EB0C006CEB01012D2302E023050E
:101C500004D52B238DF82430012303E0E30701D0C2
:101C60002023F7E7984658E00A2110E010210EE003
:101C700010204FF0000B08900CE010214FF0000BEB
:101C800044F004044FF00809089103E008214FF0E4
:101C9000000B0891C4F30253022B04D001CF0021A2
:101CA000032B06D006E0FF1D27F00707F7E8020127
:101CB00003E080B2042B00D1C0B24FF0000823072C
:101CC0002BD5702A07D0DDF820C08CF0100C5CEA10
:101CD0000B0C05D00EE040238DF82430012308E0E2
:101CE00050EA010306D030238DF824308DF82520EA
:101CF00002239846DDF820C08CF0080C5CEA0B0C3F
:101D00000BD150EA010301D1630706D530238DF8CA
:101D100024304FF00108A9F10109582A04D038A253
:101D20000B9208AA0A920BE03AA2F9E75B46089ADE
:101D3000FFF7EFFD0B9B9B5C0A9A521E0A921370F1
:101D400050EA0102F2D10A98ADEB000000F1200B3D
:101D5000600702D524F4803401E04FF00109D94531
:101D600002DDA9EB0B0000E0002000EB0B01414479
:101D70000890AAEB010AE00306D4DDE90F2321460F
:101D8000504600F063F806444FF0000908E009A946
:101D900011F80900DDE90F12904709F10109761CDD
:101DA000C145F4DBE0030CD5DDE90F2321465046A5
:101DB00000F04CF8064404E0DDE90F1230209047B3
:101DC000761C0899481E08900029F5DC08E00A985E
:101DD0000A990078491C0A91DDE90F129047761C98
:101DE000BBF10001ABF1010BF1DC21465046DDE90E
:101DF0000F2300F019F806446D1C1BE609280100AA
:101E00003031323334353637383961626364656670
:101E10000000000030313233343536373839414232
:101E200043444546000000002DE9F04104460025EA
:101E30001E461746880404D405E039462020B047E2
:101E40006D1C641EF9D52846BDE8F0812DE9F041EE
:101E5000044600251E469046C80301D5302700E001
:101E60002027880404D505E041463846B0476D1C5C
:101E7000641EF9D52846BDE8F08100000D0A5B68B4
:101E8000656C705D0D0A202A2067657420616C6C9A
:101E90002074686520636F6D6D616E64730D0A0D4B
:101EA0000A005B636C735D0D0A202A20636C656118
:101EB00072207468652073637265656E0D0A0D0A81
:101EC000005B6563686F5D0D0A202A206563686F9B
:101ED00020313A207475726E206F6E206563686FD2
:101EE0000D0A202A206563686F20303A20747572CD
:101EF0006E206F6666206563686F0D0A0D0A005BD1
:101F00007265626F6F745D0D0A202A207265626FC0
:101F10006F74204D43550D0A0D0A0000B01F0008D4
:101F20007C1E000800000000F9100008B81F00081F
:101F3000A21E0008000000001B110008CC1F0008B2
:101F4000C11E0008000000003D110008C01F00086D
:101F5000FF1E000800000000B5110008C81F00089F
:101F6000741F0008B5170008BF170008434C495FED
:101F70004C4544005B6C65645D0D0A202A206C654D
:101F80006420313A207475726E206F6E206C656427
:101F90000D0A202A206C656420303A207475726E18
:101FA000206F6666206C65640D0A0D0A0000000053
:101FB00068656C700D000000636C730D000000001C
:101FC0007265626F6F740D006C6564006563686FA5
:101FD00000000000F41F0008000000203000000096
:101FE000F81900082420000830000020C804000070
:101FF000081A000800A24A040000000000000000C7
:10200000010203040607080900000000010203049E
:102010000102030406070809020406080000000084
:0420200000000000BC
:04000005080000ED02
:00000001FF
