:020000040800F2
:10000000000A002001010008031B0008051B00086E
:10001000091B00080D1B0008111B00080000000050
:10002000000000000000000000000000151B000898
:10003000171B000800000000191B00081B1B00080C
:100040001B0100081B0100081B0100081B01000820
:100050001B0100081B0100081B0100081B01000810
:100060001B0100081B0100081B0100081B01000800
:100070001B0100081B0100081B0100081B010008F0
:100080001B0100081B0100081B0100081B010008E0
:100090001B0100081B0100081B0100081B010008D0
:1000A0001B0100081B0100081B0100081B010008C0
:1000B0001B0100081B0100081B0100081B010008B0
:1000C0001B0100081B0100081B0100081B010008A0
:1000D0001B0100081D1B00081B0100081B01000874
:1000E0001B0100081B0100081B010008DFF80CD0F1
:1000F00001F08AFD00480047EB1A0008000A0020C2
:100100000648804706480047FEE7FEE7FEE7FEE7B1
:10011000FEE7FEE7FEE7FEE7FEE7FEE70302000874
:10012000ED0000080CB50020019000906C480068BC
:1001300040F480306A49086000BF6948006800F4F4
:10014000003000900198401C0190009818B9019867
:10015000B0F5A06FF1D16248006800F4003010B132
:100160000120009001E0002000900098012843D178
:100170005C48006840F010005A4908600846006872
:1001800020F0030008600846006840F002000860A4
:1001900053484068524948600846406848600846ED
:1001A000406840F4806048600846406820F47C1055
:1001B00048600846406840F4E81048600846006817
:1001C00040F08070086000BF4548006800F0007093
:1001D0000028F9D04248406820F0030040494860B8
:1001E0000846406840F00200486000BF3C48406854
:1001F00000F00C000828F9D10CBD10B5FFF792FFF4
:1002000010BD10B53648006840F001003449086060
:10021000084640683449084031494860084600684B
:10022000324908402E4908600846006820F48020C2
:1002300008600846406820F4FE0048604FF41F0044
:100240008860FFF7DAFF4FF000602949086010BDB1
:1002500010B5002100200022214B5B6803F00C0147
:1002600021B1042906D0082928D107E0214B224CCE
:10027000236027E01F4B204C236023E0184B5B6872
:1002800003F47010164B5B6803F48032022303EB17
:10029000904022B9194B4343174C23600DE0104B9B
:1002A0005B6803F4003323B1144B4343124C2360C7
:1002B00003E0104B4343104C236003E00D4B0E4C06
:1002C000236000BF00BF064B5B68C3F303130C4CF5
:1002D000E15C094B1B68CB40074C236010BD00005C
:1002E00000100240002002400000FFF8FFFFF6FE71
:1002F00008ED00E000127A000000002000093D0037
:100300000400002031490143314A1160704770B543
:10031000002100230F22C47804B32D4C246804F478
:10032000E064C4F5E064210AC1F10403CA404478E2
:1003300004FA03F18478144021430901254C06781E
:10034000A155047804F01F050124AC4005786D1117
:10035000AD0005F1E025C5F8004109E0047804F09E
:100360001F050124AC401C4D0678761145F8264047
:1003700070BD1A4A0A400243154B1B1F1A60704792
:1003800039B1134A121D12680243114B1B1D1A602A
:1003900006E00F4A121D126882430D4B1B1D1A60A6
:1003A0007047042808D14FF0E021096941F00401A9
:1003B0004FF0E022116107E04FF0E021096921F0E0
:1003C00004014FF0E0221161704700000000FA05BF
:1003D0000CED00E000E400E080E100E080FFFF1FA2
:1003E00010B50446CC48844208D10121042000F015
:1003F0002DFB0021042000F029FB46E0C748844281
:1004000008D10121082000F021FB0021082000F084
:100410001DFB3AE0C248844208D10121102000F0BF
:1004200015FB0021102000F011FB2EE0BD48844296
:1004300008D10121202000F009FB0021202000F03C
:1004400005FB22E0B848844208D10121402000F099
:10045000FDFA0021402000F0F9FA16E0B34884428A
:1004600008D10121802000F0F1FA0021802000F065
:10047000EDFA0AE0AE48844207D10121801500F070
:10048000E5FA0021A01500F0E1FA10BD10B5012138
:10049000084600F0DBFA0021012000F0D7FA10BD79
:1004A0002DE9F0410246002500260020002300240B
:1004B000002791F803C00CF00F0591F803C00CF071
:1004C000100CBCF1000F03D091F802C04CEA0505F6
:1004D00091F800C0BCF1000F31D0146800202BE06F
:1004E0004FF0010C0CFA00F3B1F800C00CEA03065F
:1004F0009E4220D183004FF00F0C0CFA03F7BC434F
:1005000005FA03FC4CEA040491F803C0BCF1280F7F
:1005100006D14FF0010C0CFA00FCC2F814C00AE03E
:1005200091F803C0BCF1480F05D14FF0010C0CFA53
:1005300000FCC2F810C0401C0828D1D31460B1F8E8
:1005400000C0BCF1FF0F34DD546800202EE000F144
:10055000080C4FF0010808FA0CF3B1F800C00CEADF
:1005600003069E4221D183004FF00F0C0CFA03F7D3
:10057000BC4305FA03FC4CEA040491F803C0BCF147
:10058000280F05D100F1080C08FA0CF8C2F8148005
:1005900091F803C0BCF1480F07D100F1080C4FF0EF
:1005A000010808FA0CF8C2F81080401C0828CED3C5
:1005B0005460BDE8F0814FF6FF7101800221817027
:1005C0000421C17070470246002093680B400BB1B4
:1005D000012000E0002070470146886880B2704723
:1005E00002460020D3680B400BB1012000E0002040
:1005F00070470146C86880B2704701617047416129
:1006000070470AB1016100E041617047C160704705
:100610004FF480320A43826181618261826982691A
:10062000704702460020434B18684FF6807318400D
:1006300040EA021008433F4B186070473E49C861CA
:100640007047F0B50A46002300240021002500F081
:100650000046B6F1004F02D1364EF16901E0354E49
:100660007168C0F3034583B200F44016B6F5401F2D
:1006700008D121F070612F4E766826F070662D4FFC
:100680007E6012E000F48016B6F5801F06D10326C6
:1006900006FA05F4A14341F0706106E0460D36010B
:1006A00003FA06F6B14341F0706122B1460D3601FE
:1006B00003FA06F6314300F00046B6F1004F02D1CE
:1006C0001C4EF16101E01B4E7160F0BD30B500229F
:1006D0008B071C0F0F2303FA04F2164B08338C1000
:1006E00053F824309343134C08348D1044F82530CC
:1006F00023468C1053F824308C07240F00FA04F49E
:1007000023430C4C08348D1044F8253030BD0A4981
:10071000DC3108607047000000080140000C014017
:10072000001001400014014000180140001C01406D
:10073000002001400000014000002042DF48006826
:1007400040F00100DD49086008464068DC49084087
:10075000DA49486008460068DA490840D749086025
:100760000846006820F4802008600846406820F4AD
:10077000FE0048604FF41F0088607047CF49096849
:1007800021F48031CD4A11601146096821F480219D
:100790001160B0F5803F03D0B0F5802F0ED106E098
:1007A000C649096841F48031C44A116007E0C34971
:1007B000096841F4A021C14A116000E000BF00BFF8
:1007C000704710B501460022002300204A11012A7B
:1007D00002D1BA4C236806E0022A02D1B74C236A40
:1007E00001E0B64C636A01F01F02012494401C40F2
:1007F0000CB1012000E0002010BD38B500200090B1
:100800000024002500BF3120FFF7DBFF05460098DC
:10081000401C00900098B0F5A06F01D0002DF2D0E0
:100820003120FFF7CEFF08B1012400E0002420466C
:1008300038BD01460020A14A106820F0F80040EAC7
:10084000C10010607047A049086070470246002050
:100850009A4B586820F47C1042EA01031843974BE6
:100860005860704798490866704701460020934ACF
:10087000506820F003000843506070478F4840687C
:1008800000F00C007047014600208C4A506820F0B0
:10089000F00008435060704701460020874A5068C6
:1008A00020F4E06008435060704701460020834A0E
:1008B000506820F4605040EAC1005060704729B190
:1008C0007E4A527A02437D4B5A7204E07B4A527A46
:1008D00082437A4B5A7270477B49D831086070471F
:1008E00001460020754A506820F44040084350609B
:1008F00070470021714A20321170704A82F820102E
:10090000012802D004280AD104E001216B4A2032D8
:10091000117005E00521694A2032117000E000BF26
:1009200000BF70476949086070476449096A01431C
:10093000624A11627047654944390860704730B5B2
:1009400000210022002400235C4D6D6805F00C019D
:1009500021B1042905D0082923D105E05C4D0560AB
:1009600022E05B4D05601FE0544D6D6805F4701288
:10097000524D6D6805F48034022505EB92421CB996
:10098000544D554305600BE04C4D6D6805F4003542
:100990001DB1504D5543056002E04D4D5543056076
:1009A00002E04B4D056000BF00BF444D6D6805F08F
:1009B000F0010909484D6B5C0568DD4045603F4D1D
:1009C0006D6805F4E061090A434D6B5C4568DD40E4
:1009D00085603A4D6D6805F46051C90A3E4D6B5C07
:1009E0004568DD40C560354D6D6805F44041890BB3
:1009F0003A4D6B5CC568B5FBF3F5056130BD29B1B7
:100A00002E4A526902432D4B5A6104E02B4A526927
:100A100082432A4B5A61704729B1284A926902439E
:100A2000264B9A6104E0254A92698243234B9A61DE
:100A3000704729B1214AD2690243204BDA6104E0B0
:100A40001E4AD26982431D4BDA61704729B11B4AA5
:100A5000D2680243194BDA6004E0184AD268824334
:100A6000164BDA60704729B1144A12690243134BDE
:100A70001A6104E0114A12698243104B1A617047EF
:100A800012494039086070470F49C86470470B49E4
:100A9000C87170470948406A40F080700749486251
:100AA000704701460020054A92680A400AB10120B9
:100AB00000E0002070470149887270470010024032
:100AC0000000FFF8FFFFF6FE0000424280044242B1
:100AD00000127A0000093D001400002024000020CC
:100AE00010B50446FB48844209D101218803FFF771
:100AF000ADFF00214FF48040FFF7A8FF32E0F64839
:100B0000844209D101214804FFF7ADFF00214FF4D1
:100B10000030FFF7A8FF25E0F048844209D1012109
:100B20008804FFF7A0FF00214FF48020FFF79BFF10
:100B300018E0EB48844209D10121C804FFF793FF74
:100B400000214FF40020FFF78EFF0BE0E5488442C0
:100B500008D101210805FFF786FF00214FF480101E
:100B6000FFF781FF10BD2DE9F04786B005460E4620
:100B70000024A24600BFA1460027B08900B100BFF3
:100B80002F462C8A4CF6FF700440F08804432C82D8
:100B9000AC894EF6F3100440B0883189084371895E
:100BA00008430443AC81AC8A4FF6FF400440B0894F
:100BB0000443AC8201A8FFF7C2FEC648874202D1B7
:100BC000DDF810A001E0DDF80CA0A88900F40040D9
:100BD00040B10AEBCA0000EB0A1031684900B0FBD3
:100BE000F1F807E00AEBCA0000EB0A10316889004F
:100BF000B0FBF1F86420B8FBF0F004012009642197
:100C000001FB1089A88900F4004040B1322000EBBC
:100C1000C900B0FBF1F000F00700044308E0322007
:100C200000EB09106421B0FBF1F000F00F00044369
:100C30002C8106B0BDE8F0874FF416510160002109
:100C40008180C18001810C21418100218181704717
:100C500010B502460020108A4FF2FF0318400B889F
:100C60004C8823438C882343CC8823431843108229
:100C700010BD0021018041808180C180704721B179
:100C8000828942F40052828104E082894DF6FF732A
:100C90001A4082817047F0B50346002400260025E3
:100CA000002040F66A17B94200D100BF1846C1F3D0
:100CB000421401F01F06012707FA06F5012C01D1A5
:100CC0000C3004E0022C01D1103000E014301AB1D5
:100CD00007682F43076002E00768AF430760F0BD75
:100CE0001AB1838A0B43838202E0838A8B43838217
:100CF0007047028A4FF6F0731A400282028A0A4352
:100D00000282704782894FF2FF731A408281828982
:100D10000A438281704721B1828942F002028281B6
:100D200004E082894FF6FD731A4082817047028A7F
:100D30004FF6DF731A400282028A0A43028270472A
:100D400021B1028A42F48042028204E0028A4BF618
:100D5000FF731A4002827047C1F308028280704715
:100D600001468888C0F308007047818941F001017D
:100D700081817047028BD2B20283028B42EA012248
:100D800002837047028B02F47F420283028B0A4384
:100D90000283704721B1828A42F02002828204E0FD
:100DA000828A4FF6DF731A408282704721B1828AAD
:100DB00042F01002828204E0828A4FF6EF731A40FA
:100DC0008282704721B1828A42F00802828204E066
:100DD000828A4FF6F7731A408282704721B1828966
:100DE00042F40042828103E08289C2F30E028281D2
:100DF000704721B1828A42F40062828204E0828AD2
:100E00004FF2FF731A4082827047828A4FF6FB735B
:100E10001A408282828A0A438282704721B1828A82
:100E200042F00202828204E0828A4FF6FD731A4089
:100E30008282704702460020B1F5007F00D100BFDA
:100E400013880B400BB1012000E00020704701F433
:100E50000072B2F5007F00D100BFCA430280704724
:100E600070B50246002400230025002040F66A16D3
:100E7000B14200D100BFC1F3421501F01F030126AA
:100E800006FA03F3012D02D19689334006E0022DC4
:100E900002D1168A334001E0968A33400C120126B3
:100EA00006FA04F41688344013B10CB1012000E0B6
:100EB000002070BD10B50022002340F66A14A14244
:100EC00000D100BF0A1201249440A3B2DC43048085
:100ED00010BD0000003801400044004000480040C0
:100EE000004C00400050004008B501211020FFF7E1
:100EF00093FD4FF40050ADF8000010208DF8030072
:100F000003208DF8020069460348FFF7C9FA4FF441
:100F100000500149086108BD0010014070471CB530
:100F200040F225516F48FFF79BFF60B16D48FFF716
:100F300017FFC0B2019001A841236B4A911E009097
:100F4000881E00F0FEF81CBD08B54FF4A060FFF746
:100F5000D9F925208DF8000001208DF801008DF8C9
:100F600002008DF803006846FFF7D1F908BD10B5FF
:100F700086B0044601210420FFF74EFD01218803BD
:100F8000FFF74AFD4FF40070ADF8140018208DF8FB
:100F9000170003208DF8160005A95448FFF780FAC2
:100FA0004FF48060ADF8140004208DF8170005A9F7
:100FB0004E48FFF775FA01940020ADF80800ADF82F
:100FC0000A00ADF80C00ADF810000C20ADF80E00D2
:100FD00001A94448FFF7C7FDFFF7B6FF012240F221
:100FE00025514048FFF757FE01213E48FFF747FED5
:100FF00006B010BD70B504460D4629462046FFF7E1
:10100000ABFE00BF80212046FFF714FF0028F9D077
:1010100070BD2DE9F04107460D461646002405E057
:10102000295D3846FFF7E6FF601CC4B2B442F7DB27
:1010300000BF40213846FFF7FDFE0028F9D0BDE88B
:10104000F08170B506460C46002500BF615D304654
:10105000FFF7D0FF6D1C605D0028F7D100BF402175
:101060003046FFF7E7FE0028F9D070BD2DE9F041CA
:1010700005460C46260AE7B231462846FFF76CFEC5
:1010800000BF80212846FFF7D5FE0028F9D0394659
:101090002846FFF761FE00BF80212846FFF7CAFE01
:1010A0000028F9D0BDE8F08170B504460D46E1B2E4
:1010B0000C48FFF751FE00BF80210A48FFF7BAFE37
:1010C0000028F9D0204670BD10B5044600BF20218D
:1010D0000448FFF7AFFE0028F9D00248FFF740FEB2
:1010E00010BD00000038014034000020000801401D
:1010F00030B504460D46002103E000205054481C42
:1011000081B29942F9DB002028802080012030BD87
:1011100030B504460888401C90FBF3F503FB15002E
:101120002588A84201D1012030BD0020FCE730B560
:10113000044620880D88A84201D1012030BD00203E
:10114000FCE72DE9F04107460C4615461E46DDF842
:10115000188033462A4621463846FFF7D9FF10B19A
:101160000020BDE8F08198F80000218868542088AC
:10117000401C90FBF6F106FB110020800120F0E7F7
:101180002DE9F04104460F4615461E46DDF818804D
:1011900033462A4639462046FFF7C9FF10B10020E2
:1011A000BDE8F0812088285C88F800002088401C79
:1011B00090FBF6F106FB110020800120F0E7000013
:1011C00070B505460E4600240CE0FE4800EB041006
:1011D000406828B1FB4901EB0411486800F026FD86
:1011E000601CC4B2052CF0D3012070BD70B504465C
:1011F0000D46F5A000F01AFDF5A000F017FDF6A0D1
:1012000000F014FDF5A000F011FD012070BD70B5D7
:1012100005460E462C46002E17DDB4B1641C20781E
:10122000312806D10120EF490870EFA000F0FEFC44
:101230000BE02078302806D10020EA490870EDA0A4
:1012400000F0F4FC01E0002070BD0120FCE7ECA000
:1012500000F0ECFCF1A000F0E9FCF14800F03CFCEF
:10126000EEA000F0E3FCEE4800F036FCEBA000F04E
:10127000DDFC00BFEB48006800F4E060EA49084389
:10128000001DE8490860BFF34F8F00BF00BFFEE7B5
:1012900070B50446E54890F8016504B970BD204674
:1012A00000F078FC85B2802D00DBF7E716B1701EE8
:1012B000C6B200E00926DD4901EBC6102A462146E8
:1012C00000F06FFC68B3D94991F80115D74A02EBD9
:1012D000C110802100F041FCD44991F80115D34A96
:1012E00002EBC1102A46214600F01EFCCF4890F8C0
:1012F00000050A2806DACD4890F80005401CCB49C5
:1013000081F80005C94890F80105401CC74981F8DB
:101310000105084690F801050A2802DB002081F843
:1013200001050020C14981F8020500BFB6E770B58C
:1013300003460C460120BD4D95F8005505B970BD1A
:10134000012B0FD1B94D95F80255B84E96F80065AE
:10135000B54213DAB54D95F802556D1CB34E86F8BB
:1013600002550BE0B14D95F80255012D06DDAF4D4C
:1013700095F802556D1EAD4E86F80255AB4D95F8A9
:10138000022595F8011506E011B14D1EE9B200E005
:101390000921551EEAB2002AF6D10020A34D05EB23
:1013A000C115256000BFCAE770B505464521A048B4
:1013B00000F0D3FB40F203519C4800F0CEFB2846DE
:1013C000FFF7D5FD002410E07E4800EB0410806894
:1013D00048B17C4901EB04118868804718B921465F
:1013E00094A000F023FC601CC4B2052CECD398A0A0
:1013F00000F01CFC74A000F019FC75A000F016FCB5
:1014000076A000F013FC74A000F010FC00BF0420D4
:1014100009282AD2DFE800F005090D1115191D2150
:1014200025008CA000F002FC1FE08CA000F0FEFB69
:101430001BE08CA000F0FAFB17E065A000F0F6FBC3
:1014400013E08AA000F0F2FB0FE08AA000F0EEFBB0
:101450000BE08AA000F0EAFB07E08AA000F0E6FBC0
:1014600003E08AA000F0E2FB00BF00BF89A000F00B
:10147000DDFB57A000F0DAFB00BF8FA000F0D6FB29
:101480008FA000F0D3FB97A000F0D0FB9EA000F04F
:10149000CDFBA6A000F0CAFB00BF042009282AD279
:1014A000DFE800F005090D1115191D21250069A0BF
:1014B00000F0BCFB1FE069A000F0B8FB1BE069A0D6
:1014C00000F0B4FB17E042A000F0B0FB13E067A00F
:1014D00000F0ACFB0FE067A000F0A8FB0BE067A0FA
:1014E00000F0A4FB07E067A000F0A0FB03E067A00A
:1014F00000F09CFB00BF00BF66A000F097FB34A08B
:1015000000F094FB00BF70BD2DE9F84F05468948F7
:1015100090F880404FF0000A89E1864890F88000FA
:1015200080284CDA834890F880008249084441239F
:101530002A1DA91C00902846FFF722FE012822D16F
:101540007C4890F880007B49085C082813D1084645
:1015500090F8800000280DDD012177A000F066FBE7
:1015600077A000F063FB734890F88000401E71493B
:1015700081F8800059E16F4890F88000401C6D4967
:1015800081F8800051E100264FF0FF090020009013
:10159000684890F88000022812DD6AA1654800F0D2
:1015A000E7FA58B10126634890F8801062A000F075
:1015B0003DFB63A000F03AFB6946C5E0C9E035E1B8
:1015C0001FE10000B21E00081B5B313B34306D0090
:1015D0001B5B313B33326D001B5B48001B5B324AA7
:1015E00000000000280000206563686F206F6E0D0A
:1015F0000A0000006563686F206F66660D0A0000D0
:101600000D0A5B454E445D3A2053797374656D2035
:101610005265626F6F74696E670000002E000000F3
:10162000FFFF8F000CED00E00000FA0575000020C0
:10163000300000200D0A2D3E2046554E5B25645D8E
:1016400020494E49542057524F4E470D0A00000082
:10165000200D0A001B5B313B33306D001B5B303BC0
:1016600033316D001B5B313B33316D001B5B313B14
:1016700033336D001B5B313B33346D001B5B313BFF
:1016800033356D001B5B313B33366D001B5B313BEB
:1016900033376D002D2D2D2D2D2D2D2D2D2D2D2D57
:1016A0002D2D2D2D2D2D2D2D2D2D2D2D2D2D2D2D6A
:1016B0002D2D2D0D0A0D0A001B5B376D000000005B
:1016C00020202020434C492076657273696F6E3A62
:1016D0002056302E36202020202020202020200DB3
:1016E0000A0D0A0020202020636F6465723A2043AF
:1016F0006174202020202020202020202020202055
:101700002020200D0A0D0A0020202020456D61694F
:101710006C3A203834333535333439334071712ED7
:10172000636F6D202020200D0A0D0A001B5B3237ED
:101730006D000000780500201B5B2564440000005C
:101740001B5B4B001B5B41000120FFF7F0FD814656
:1017500023E087A1874800F00BFA88B1022685486C
:1017600090F88010AFF2300000F060FAAFF2300075
:1017700000F05CFA69460020FFF7D9FD81460CE0D5
:101780007DA17C4800F0F4F908B1032605E07BA1B7
:10179000784800F0EDF900B1042696B3B9F1000FD6
:1017A0001CD18121734800F0D8F9009800F0F2F9BB
:1017B00083465A466F48009900F0B6F9009800F049
:1017C000E9F96C4981F88000002091F88010694A9D
:1017D000505411466AA000F029FA12E0B9F1010F45
:1017E00000D076B1634890F88010AFF2B40000F0FA
:1017F0001DFAAFF2B40000F019FA81215D4800F043
:10180000ACF98EB95B4890F88000A0420CDD06E090
:101810005848015D5B48FFF79FFA601CC4B2554809
:1018200090F88000A042F3DC02E000E000E074E603
:1018300000BF504890F8800001280BD14D4890F827
:101840008000401E4B49085C0D2803D1002081F820
:10185000800079E0474890F88000012874DD454811
:1018600090F88000401E4349085C0D286CD100218F
:10187000404890F88000401E3E4A1154002457E032
:10188000414901EB0411086800F084F906463E481E
:1018900000EB041001683246364800F08FF900284A
:1018A00044D14FF0010A384901EB0411086800F0F7
:1018B00071F9304991F88010081AC7B2324901EB2A
:1018C0000411086800F066F92A4900EB01082E4867
:1018D00000EB0410C06830B32B4800EB0410C26862
:1018E000394640469047A0B128A000F09FF9214812
:1018F000FFF7CEFC28480078012817D100201D49A9
:1019000091F880101B4A5054114624A000F08EF923
:101910000CE026A000F08AF91B4901EB041148688D
:1019200000F084F902E026A000F080F9601CC4B247
:10193000052CA5D3BAF1000F02D126A000F076F94C
:1019400000200C4981F880000A4890F88000802827
:1019500003DB0020074981F88000BDE8F88F70475D
:1019600010B52348FFF7D0FDFFF7F9FF10BD0000C9
:101970001B5B4200780500201B5B43001B5B44009F
:101980002573000000380140B21E00080D0A2D3EEC
:10199000204F4B0D0A000000280000205B656368A3
:1019A0006F5D3A2025730D0A000000000D0A2D3EE0
:1019B00020504152412E204552520D0A0000000095
:1019C0000D0A2D3E2046554E432E204552520D0AFB
:1019D000000000000D0A2D3E20434D442045525288
:1019E0002C207472793A2068656C700D0A0D0A001B
:1019F0003000002010B5FFF777FA10BD10B5FFF7E3
:101A0000F9FF012010BD70B505460E462C46002E8C
:101A100036DD002C34D0641C2078312815D14FF4E9
:101A200000501849486100BF17A000F0FFF800BF40
:101A300000BF16A000F0FAF83222164916A000F0F6
:101A4000F5F81CA000F0F2F81AE02078302815D143
:101A50004FF400500B49086100BF0BA000F0E6F8FE
:101A600000BF00BF09A000F0E1F83722094913A028
:101A700000F0DCF80FA000F0D9F801E0002070BD04
:101A80000120FCE7001001400D0A00001B5B313B08
:101A900033336D00021F00085B44656275675D208B
:101AA0002573282564293A206C6564206F6E0D0A21
:101AB0000D0A00001B5B313B33326D005B446562F5
:101AC00075675D202573282564293A206C6564209C
:101AD0006F66660D0A0D0A0001B502E00098401E0F
:101AE000009000980028F9D108BD4FF4E130FFF7CD
:101AF0005BFC05E0FFF734FF4FF6FF70FFF7ECFFEC
:101B0000F8E7704700BFFEE700BFFEE700BFFEE753
:101B100000BFFEE7704770477047704710B5FFF78A
:101B2000FDF9FFF7FCF910BD40EA01039B0703D064
:101B300009E008C9121F08C0042AFAD203E011F80C
:101B4000013B00F8013B521EF9D27047D2B201E0CE
:101B500000F8012B491EFBD270470022F6E710B5B2
:101B600013460A4604461946FFF7F0FF204610BD0B
:101B700030B505462A460B4612F8010B13F8014B07
:101B800008B1A042F8D01CB1002802D06D1CF1E7CA
:101B9000284630BD421C10F8011B0029FBD1801AD9
:101BA000704730B504460020034600E05B1C9342BA
:101BB00003D2E05CCD5C401BF8D030BD30B50546AB
:101BC0000020034600E05B1C934205D2EC5CC85C3D
:101BD000201A01D1002CF6D130BD30B50B4601469C
:101BE00000202022012409E021FA02F59D4205D3BC
:101BF00003FA02F5491B04FA02F52844151EA2F166
:101C00000102F1DC30BD0000064C074D06E0E06843
:101C100040F0010394E8070098471034AC42F6D333
:101C2000FEF768FA681F0008881F00080FB4054B0C
:101C300010B503A9044A029800F018F810BC5DF82A
:101C400014FB0000A91000082C00002002E008C8C6
:101C5000121F08C1002AFAD170477047002001E026
:101C600001C1121F002AFBD1704700002DE9FF4F70
:101C70008BB09A460F460546002606E025280BD075
:101C800052460D9990476D1C761C28780028F5D196
:101C90000FB03046BDE8F08F0024A0460122604915
:101CA00000E0044315F8013F203B02FA03F008422C
:101CB000F7D128782E2817D115F8010F44F0040425
:101CC0002A280ED06FF02F022878A0F130010929C0
:101CD0000AD808EB880102EB410100EB01086D1CFA
:101CE000F2E757F8048B6D1C287869283ED006DC93
:101CF0000028CDD063280BD0642804D136E07328A7
:101D000010D075284BD052460D999047761C85E02F
:101D100017F8040B8DF8000000208DF80100E9464B
:101D2000012003E057F8049B4FF0FF3061074FF0AC
:101D3000000401D40AE0641C44450DDA8442FADB55
:101D400019F804100029F6D106E0641C8442FCDB7B
:101D500019F804100029F8D1264404E019F8010B01
:101D600052460D999047641EF8D257E001CF4FF0CC
:101D70000A0B002802DA40422D2102E0210504D599
:101D80002B218DF82410012103E0E10705D020214B
:101D9000F7E70DF1200908910CE00021F9E701CFE8
:101DA0004FF00A0BF9E75946FFF717FF01F1300230
:101DB00009F8012D0028F6D1ADEB090000F1200B48
:101DC000600701D44FF00108D84502DDA8EB0B00F5
:101DD00000E000208046002406E009A85246005D8D
:101DE0000D999047641C761C08988442F5DB04E04A
:101DF000302052460D999047761CB8F10001A8F1A9
:101E00000108F5DC05E019F8010B52460D999047E1
:101E1000761CBBF10001ABF1010BF4DC6D1C34E767
:101E2000092801000D0A5B68656C705D0D0A202AA7
:101E30002073686F7720636F6D6D616E64730D0A38
:101E40000D0A005B636C735D0D0A202A20636C65CC
:101E50006172207468652073637265656E0D0A0D8A
:101E60000A005B6563686F5D0D0A202A2065636860
:101E70006F20313A206563686F206F6E0D0A202A4B
:101E8000206563686F20303A206563686F206F6655
:101E9000660D0A0D0A005B7265626F6F745D0D0A54
:101EA000202A207265626F6F74204D43550D0A0D14
:101EB0000A00541F0008241E000800000000C11181
:101EC00000085C1F0008431E000800000000ED1120
:101ED00000084C1F0008621E0008000000000F12DE
:101EE0000008601F0008961E0008000000004F1246
:101EF0000008481F00080C1F0008FD190008071AF9
:101F00000008434C495F4C45440000005B6C65642D
:101F10005D0D0A202A206C656420313A20747572A8
:101F20006E206F6E206C65640D0A202A206C65643B
:101F300020303A207475726E206F6666206C65647E
:101F40000D0A0D0A000000006C6564006563686F8F
:101F50000000000068656C7000000000636C730096
:101F60007265626F6F740000881F00080000002017
:101F7000300000004C1C0008B81F00083000002092
:101F8000D00900005C1C000800A24A040000000008
:101F90000000000001020304060708090000000019
:101FA00001020304010203040607080902040608EB
:081FB000000000000000000029
:04000005080000ED02
:00000001FF
